:020000040800F2
:10000000000001208D0E0008DD0E0008DD0E000846
:10001000DD0E0008DD0E0008DD0E00080000000007
:10002000000000000000000000000000DD0E0008DD
:10003000DD0E000800000000DD0E0008DD0E0008E7
:1000400000000000DD0E0008DD0E0008DD0E0008D7
:10005000DD0E0008DD0E0008DD0E0008DD0E0008D4
:10006000DD0E0008DD0E0008DD0E0008DD0E0008C4
:10007000DD0E0008DD0E0008DD0E0008DD0E0008B4
:10008000DD0E0008DD0E0008DD0E00080000000097
:10009000000000000000000000000000DD0E00086D
:1000A000DD0E0008DD0E0008DD0E0008DD0E000884
:1000B000DD0E0008DD0E0008DD0E0008DD0E000874
:1000C000DD0E0008DD0E0008DD0E0008DD0E000864
:1000D000DD0E0008DD0E0008DD0E00080000000047
:1000E000DD0E0008DD0E0008DD0E00080000000037
:1000F000000000000000000000000000DD0E00080D
:1001000000000000DD0E0008DD0E0008DD0E000816
:1001100000000000000000000000000000000000DF
:10012000DD0E0008DD0E0008DD0E0008DD0E000803
:10013000DD0E0008000000000000000000000000CC
:10014000000000000000000000000000DD0E0008BC
:10015000DD0E0008DD0E0008DD0E0008DD0E0008D3
:10016000DD0E0008DD0E00080000000000000000A9
:10017000000000000000000000000000000000007F
:10018000000000000000000000000000000000006F
:04019000DD0E000878
:1001980010B5054C237833B9044B13B10448AFF3B9
:1001A80000800123237010BD000000200000000023
:1001B800280F000808B5034B1BB103490348AFF3E8
:1001C800008008BD0000000004000020280F00087F
:1001D80081F0004102E000BF83F0004330B54FEAF0
:1001E80041044FEA430594EA050F08BF90EA020F5D
:1001F8001FBF54EA000C55EA020C7FEA645C7FEAF0
:10020800655C00F0E2804FEA5454D4EB5555B8BF12
:100218006D420CDD2C4480EA020281EA030382EA83
:10022800000083EA010180EA020281EA0303362D15
:1002380088BF30BD11F0004F4FEA01314FF4801CE8
:100248004CEA113102D0404261EB410113F0004FFA
:100258004FEA03334CEA133302D0524263EB4303B1
:1002680094EA050F00F0A780A4F10104D5F1200E4F
:100278000DDB02FA0EFC22FA05F2801841F10001AA
:1002880003FA0EF2801843FA05F359410EE0A5F17E
:1002980020050EF1200E012A03FA0EFC28BF4CF0AF
:1002A800020C43FA05F3C01851EBE37101F0004565
:1002B80007D54FF0000EDCF1000C7EEB00006EEB72
:1002C8000101B1F5801F1BD3B1F5001F0CD34908FC
:1002D8005FEA30004FEA3C0C04F101044FEA445253
:1002E80012F5800F80F09A80BCF1004F08BF5FEADA
:1002F800500C50F1000041EB045141EA050130BDBA
:100308005FEA4C0C404141EB0101013C28BFB1F5CB
:10031800801FE9D291F0000F04BF01460020B1FA16
:1003280081F308BF2033A3F10B03B3F120020CDAE9
:100338000C3208DD02F1140CC2F10C0201FA0CF0C7
:1003480021FA02F10CE002F11402D8BFC2F1200C2C
:1003580001FA02F120FA0CFCDCBF41EA0C019040E2
:10036800E41AA2BF01EB0451294330BD6FEA04042B
:100378001F3C1CDA0C340EDC04F11404C4F1200216
:1003880020FA04F001FA02F340EA030021FA04F328
:1003980045EA030130BDC4F10C04C4F1200220FA7F
:1003A80002F001FA04F340EA0300294630BD21FABD
:1003B80004F0294630BD94F0000F83F4801306BF83
:1003C80081F480110134013D4EE77FEA645C18BF77
:1003D8007FEA655C29D094EA050F08BF90EA020F0E
:1003E80005D054EA000C04BF1946104630BD91EA06
:1003F800030F1EBF0021002030BD5FEA545C05D109
:100408004000494128BF41F0004130BD14F5800447
:100418003CBF01F5801130BD01F0004545F0FE41BB
:1004280041F470014FF0000030BD7FEA645C1ABFF0
:10043800194610467FEA655C1CBF0B46024650EA27
:10044800013406BF52EA033591EA030F41F4002153
:1004580030BD00BF90F0000F04BF0021704730B5D9
:100468004FF4806404F132044FF000054FF00001AE
:1004780050E700BF90F0000F04BF0021704730B56F
:100488004FF4806404F1320410F0004548BF404244
:100498004FF000013EE700BF42004FEAE2014FEA99
:1004A80031014FEA02701FBF12F07F4393F07F4F74
:1004B80081F06051704732F07F4208BF704793F077
:1004C8007F4F04BF41F40021704730B54FF460748A
:1004D80001F0004521F000411CE700BF50EA01028D
:1004E80008BF704730B54FF000050AE050EA010236
:1004F80008BF704730B511F0004502D5404261EBA6
:1005080041014FF4806404F132045FEA915C3FF4E6
:10051800D8AE4FF003025FEADC0C18BF03325FEA83
:10052800DC0C18BF033202EBDC02C2F1200300FA34
:1005380003FC20FA02F001FA03FE40EA0E0021FA59
:1005480002F11444BDE600BF70B54FF0FF0C4CF447
:10055800E06C1CEA11541DBF1CEA135594EA0C0FF9
:1005680095EA0C0F00F0DEF82C4481EA030621EA34
:100578004C5123EA4C5350EA013518BF52EA03356F
:1005880041F4801143F4801338D0A0FB02CE4FF021
:100598000005E1FB02E506F00042E0FB03E54FF051
:1005A8000006E1FB03569CF0000F18BF4EF0010E49
:1005B800A4F1FF04B6F5007F64F5407404D25FEA45
:1005C8004E0E6D4146EB060642EAC62141EA5551F8
:1005D8004FEAC52040EA5E504FEACE2EB4F1FD0C3A
:1005E80088BFBCF5E06F1ED8BEF1004F08BF5FEAB8
:1005F800500E50F1000041EB045170BD06F000466A
:1006080046EA010140EA020081EA0301B4EB5C0416
:10061800C2BFD4EB0C0541EA045170BD41F480110E
:100628004FF0000E013C00F3AB8014F1360FDEBF33
:10063800002001F0004170BDC4F10004203C35DA0F
:100648000C341BDC04F11404C4F1200500FA05F392
:1006580020FA04F001FA05F240EA020001F0004233
:1006680021F0004110EBD37021FA04F642EB0601A9
:100678005EEA430E08BF20EAD37070BDC4F10C04D3
:10068800C4F1200500FA04F320FA05F001FA04F297
:1006980040EA020001F0004110EBD37041F1000183
:1006A8005EEA430E08BF20EAD37070BDC4F120058E
:1006B80000FA05F24EEA020E20FA04F301FA05F2F6
:1006C80043EA020321FA04F001F0004121FA04F29E
:1006D80020EA020000EBD3705EEA430E08BF20EA6E
:1006E800D37070BD94F0000F0FD101F000464000A8
:1006F80041EB010111F4801F08BF013CF7D041EA2A
:10070800060195F0000F18BF704703F0004652002D
:1007180043EB030313F4801F08BF013DF7D043EAFE
:100728000603704794EA0C0F0CEA135518BF95EAB4
:100738000C0F0CD050EA410618BF52EA4306D1D13B
:1007480081EA030101F000414FF0000070BD50EA5A
:10075800410606BF1046194652EA430619D094EAE4
:100768000C0F02D150EA013613D195EA0C0F05D1CE
:1007780052EA03361CBF104619460AD181EA030122
:1007880001F0004141F0FE4141F470014FF00000DA
:1007980070BD41F0FE4141F4780170BD70B54FF075
:1007A800FF0C4CF4E06C1CEA11541DBF1CEA1355F5
:1007B80094EA0C0F95EA0C0F00F0A7F8A4EB0504D7
:1007C80081EA030E52EA03354FEA013100F08880CE
:1007D8004FEA03334FF0805545EA131343EA126397
:1007E8004FEA022245EA111545EA10654FEA00264C
:1007F8000EF000419D4208BF964244F1FD0404F505
:10080800407402D25B084FEA3202B61A65EB030560
:100818005B084FEA32024FF480104FF4002CB6EB1D
:10082800020E75EB030E22BFB61A754640EA0C009D
:100838005B084FEA3202B6EB020E75EB030E22BFDD
:10084800B61A754640EA5C005B084FEA3202B6EB1E
:10085800020E75EB030E22BFB61A754640EA9C00DD
:100868005B084FEA3202B6EB020E75EB030E22BFAD
:10087800B61A754640EADC0055EA060E18D04FEA6B
:10088800051545EA16754FEA06164FEAC30343EA0B
:1008980052734FEAC2025FEA1C1CC0D111F4801FD8
:1008A8000BD141EA00014FF000004FF0004CB6E7D1
:1008B80011F4801F04BF01430020B4F1FD0C88BF70
:1008C800BCF5E06F3FF6AFAEB5EB030C04BFB6EB7B
:1008D800020C5FEA500C50F1000041EB045170BD6E
:1008E8000EF0004E4EEA113114EB5C04C2BFD4EB9B
:1008F8000C0541EA045170BD41F480114FF0000E1F
:10090800013C90E645EA060E8DE60CEA135594EA9A
:100918000C0F08BF95EA0C0F3FF43BAF94EA0C0F9D
:100928000AD150EA01347FF434AF95EA0C0F7FF412
:1009380025AF104619462CE795EA0C0F06D152EA66
:1009480003353FF4FDAE1046194622E750EA41064A
:1009580018BF52EA43067FF4C5AE50EA41047FF45B
:100968000DAF52EA43057FF4EBAE12E74FEA4102BE
:1009780012F5001215D211D56FF47873B3EB6252E9
:1009880012D94FEAC12343F0004343EA505311F010
:10099800004F23FA02F018BF404270474FF00000A2
:1009A800704750EA013005D111F0004008BF6FF0E0
:1009B800004070474FF00000704700BF80B400AFA0
:1009C800054B5B6C044A43F48073536400BFBD4617
:1009D8005DF8047B704700BF0038024080B485B0E2
:1009E80000AF03463A60FB710B46BB710D4B9B6829
:1009F8000C4A43F0010393600023FB6002E0FB68AC
:100A08000133FB60FB68B3F57A7FF8DB054B002206
:100A18005A60044B00225A6300BF1437BD465DF884
:100A2800047B70470020014080B400AF094B9B68ED
:100A3800084A43F08043936000BF064B1B6803F0ED
:100A48000203002BF9D0034BDB6C1846BD465DF85A
:100A5800047B704700200140B0B584B000AF7860D7
:100A680039603B68B3F5401F1CD03B68B3F5401FA5
:100A78001BD83B68B3F5001F11D03B68B3F5001FC6
:100A880013D83B68002B04D03B68B3F5801F03D014
:100A98000BE00C23FB600BE00A23FB6008E0082353
:100AA800FB6005E00623FB6002E00C23FB6000BF4F
:100AB8007868FFF7CFFC16A3D3E90023FFF744FDBE
:100AC80002460B4614461D460122FB6802FA03F350
:100AD8001846FFF7CFFC02460B4620462946FFF78B
:100AE8005DFE02460B46104619460BA3D3E90023C8
:100AF800FFF754FE02460B4610461946FFF736FF2D
:100B08000346BB60BB6818461037BD46B0BD00BF82
:100B18006666666666660A407B14AE47E17A843F7D
:100B280080B483B000AF78607B68124A934206D1E4
:100B3800114B1B6B104A43F00103136314E07B68ED
:100B48000E4A934206D10C4B1B6B0B4A43F002032F
:100B5800136309E07B680A4A934205D1064B1B6B75
:100B6800054A43F00403136300BF0C37BD465DF824
:100B7800047B704700000240003802400004024035
:100B88000008024080B485B000AFF860B960114633
:100B98001A460B46FB711346BB71FB681A68BB68A3
:100BA8005B00032101FA03F3DB431A40FB681A6078
:100BB800FB681A68F979BB685B0001FA03F31A430A
:100BC800FB681A60FB689A68BB685B00032101FA3E
:100BD80003F3DB431A40FB689A60FB689A68B979AB
:100BE800BB685B0001FA03F31A43FB689A60FB6871
:100BF8005A680121BB6801FA03F3DB431A40FB681A
:100C08005A60FB685A68397EBB6801FA03F31A43D5
:100C1800FB685A60FB68DA68BB685B00032101FA6D
:100C280003F3DB431A40FB68DA60FB68DA68397F54
:100C3800BB685B0001FA03F31A43FB68DA6000BF84
:100C48001437BD465DF8047B704780B485B000AFAB
:100C5800F860B9607A607B68012B09D1FB685A6932
:100C68000121BB6801FA03F31A43FB685A610CE0DF
:100C78007B68002B09D1FB685A690121BB6801FA1E
:100C880003F3DB431A40FB685A6100BF1437BD46C3
:100C98005DF8047B704780B483B000AF786039603A
:100CA8007B681A693B6842FA03F303F001031846AC
:100CB8000C37BD465DF8047B704780B485B000AF43
:100CC80078600023FB6002E0FB680133FB607B680F
:100CD8004FF47A7202FB03F3FA689A42F4D300BF26
:100CE80000BF1437BD465DF8047B704780B483B0FD
:100CF80000AF78607A681346DB001344064A82FB2B
:100D080003125210DB17D31A203318460C37BD468E
:100D18005DF8047B704700BF6766666680B586B07D
:100D280002AF5748FFF7FCFEFFF748FE544B1B681D
:100D3800534A43F0030313600123019300230093F4
:100D48000023012201214E48FFF71CFF01230193D4
:100D5800002300930023012202214948FFF712FFD4
:100D68000123019300230093002301220321444817
:100D7800FFF708FF012301930023009300230022BB
:100D880004213F48FFF7FEFE01230193002300934F
:100D98000023012205213A48FFF7F4FE01230193BD
:100DA800002300930023012206213548FFF7EAFEBD
:100DB800002200210020FFF711FEFFF735FEF86042
:100DC8000021F868FFF748FEB860BB68182B0ADCFA
:100DD800012202212A48FFF738FF0022062128486D
:100DE800FFF733FF30E0BB68192B0DDDBB68232B01
:100DF8000ADC012203212248FFF727FF01220621EE
:100E08001F48FFF722FF1FE0BB68232B0DDDBB68DF
:100E18002C2B0ADC012201211948FFF716FF0122B9
:100E280006211748FFF711FF0EE00122012114489F
:100E3800FFF70BFF012205211148FFF706FF0122EA
:100E480006210F48FFF701FF04210D48FFF723FF94
:100E58000346002BB1D14FF4FA70FFF72EFF04219F
:100E68000748FFF718FF0346002BA6D0B868FFF71E
:100E78003DFF07EE900AF8EEE77AC7ED017A9CE7A6
:100E8800000002400D488546AFF300800C480D492C
:100E98000D4A002302E0D458C4500433C4188C42CD
:100EA800F9D30A4A0A4C002301E013600432A24233
:100EB800FBD300F011F8FFF731FFFEE70000012037
:100EC8000000002000000020480F0008000000205B
:100ED8001C000020FEE7000070B50D4D0D4C641B92
:100EE800A4100026A64209D10B4D0C4C00F018F8AE
:100EF800641BA4100026A64205D170BD55F8043B1A
:100F080098470136EEE755F8043B98470136F2E773
:100F1800400F0008400F0008400F0008440F000869
:100F2800F8B500BFF8BC08BC9E467047F8B500BFCE
:080F3800F8BC08BC9E4670479E
:040F4000BD010008E7
:040F44009901000807
:0400000508000E8D54
:00000001FF
